{
  "address": "0xB0F40775Ae3414F15f43CFF2fDab83a7cd36e61f",
  "abi": [
    {
      "inputs": [
        {
          "internalType": "string",
          "name": "_name",
          "type": "string"
        },
        {
          "internalType": "string",
          "name": "_symbol",
          "type": "string"
        },
        {
          "internalType": "uint8",
          "name": "_sharedDecimals",
          "type": "uint8"
        },
        {
          "internalType": "address",
          "name": "_layerZeroEndpoint",
          "type": "address"
        }
      ],
      "stateMutability": "nonpayable",
      "type": "constructor"
    },
    {
      "anonymous": false,
      "inputs": [
        {
          "indexed": true,
          "internalType": "address",
          "name": "owner",
          "type": "address"
        },
        {
          "indexed": true,
          "internalType": "address",
          "name": "spender",
          "type": "address"
        },
        {
          "indexed": false,
          "internalType": "uint256",
          "name": "value",
          "type": "uint256"
        }
      ],
      "name": "Approval",
      "type": "event"
    },
    {
      "anonymous": false,
      "inputs": [
        {
          "indexed": true,
          "internalType": "uint16",
          "name": "_srcChainId",
          "type": "uint16"
        },
        {
          "indexed": false,
          "internalType": "bytes",
          "name": "_srcAddress",
          "type": "bytes"
        },
        {
          "indexed": false,
          "internalType": "uint64",
          "name": "_nonce",
          "type": "uint64"
        },
        {
          "indexed": false,
          "internalType": "bytes32",
          "name": "_hash",
          "type": "bytes32"
        }
      ],
      "name": "CallOFTReceivedSuccess",
      "type": "event"
    },
    {
      "anonymous": false,
      "inputs": [
        {
          "indexed": false,
          "internalType": "uint16",
          "name": "_srcChainId",
          "type": "uint16"
        },
        {
          "indexed": false,
          "internalType": "bytes",
          "name": "_srcAddress",
          "type": "bytes"
        },
        {
          "indexed": false,
          "internalType": "uint64",
          "name": "_nonce",
          "type": "uint64"
        },
        {
          "indexed": false,
          "internalType": "bytes",
          "name": "_payload",
          "type": "bytes"
        },
        {
          "indexed": false,
          "internalType": "bytes",
          "name": "_reason",
          "type": "bytes"
        }
      ],
      "name": "MessageFailed",
      "type": "event"
    },
    {
      "anonymous": false,
      "inputs": [
        {
          "indexed": false,
          "internalType": "address",
          "name": "_address",
          "type": "address"
        }
      ],
      "name": "NonContractAddress",
      "type": "event"
    },
    {
      "anonymous": false,
      "inputs": [
        {
          "indexed": true,
          "internalType": "address",
          "name": "previousOwner",
          "type": "address"
        },
        {
          "indexed": true,
          "internalType": "address",
          "name": "newOwner",
          "type": "address"
        }
      ],
      "name": "OwnershipTransferred",
      "type": "event"
    },
    {
      "anonymous": false,
      "inputs": [
        {
          "indexed": true,
          "internalType": "uint16",
          "name": "_srcChainId",
          "type": "uint16"
        },
        {
          "indexed": true,
          "internalType": "address",
          "name": "_to",
          "type": "address"
        },
        {
          "indexed": false,
          "internalType": "uint256",
          "name": "_amount",
          "type": "uint256"
        }
      ],
      "name": "ReceiveFromChain",
      "type": "event"
    },
    {
      "anonymous": false,
      "inputs": [
        {
          "indexed": false,
          "internalType": "uint16",
          "name": "_srcChainId",
          "type": "uint16"
        },
        {
          "indexed": false,
          "internalType": "bytes",
          "name": "_srcAddress",
          "type": "bytes"
        },
        {
          "indexed": false,
          "internalType": "uint64",
          "name": "_nonce",
          "type": "uint64"
        },
        {
          "indexed": false,
          "internalType": "bytes32",
          "name": "_payloadHash",
          "type": "bytes32"
        }
      ],
      "name": "RetryMessageSuccess",
      "type": "event"
    },
    {
      "anonymous": false,
      "inputs": [
        {
          "indexed": true,
          "internalType": "uint16",
          "name": "_dstChainId",
          "type": "uint16"
        },
        {
          "indexed": true,
          "internalType": "address",
          "name": "_from",
          "type": "address"
        },
        {
          "indexed": true,
          "internalType": "bytes32",
          "name": "_toAddress",
          "type": "bytes32"
        },
        {
          "indexed": false,
          "internalType": "uint256",
          "name": "_amount",
          "type": "uint256"
        }
      ],
      "name": "SendToChain",
      "type": "event"
    },
    {
      "anonymous": false,
      "inputs": [
        {
          "indexed": false,
          "internalType": "uint16",
          "name": "_dstChainId",
          "type": "uint16"
        },
        {
          "indexed": false,
          "internalType": "uint16",
          "name": "_type",
          "type": "uint16"
        },
        {
          "indexed": false,
          "internalType": "uint256",
          "name": "_minDstGas",
          "type": "uint256"
        }
      ],
      "name": "SetMinDstGas",
      "type": "event"
    },
    {
      "anonymous": false,
      "inputs": [
        {
          "indexed": false,
          "internalType": "address",
          "name": "precrime",
          "type": "address"
        }
      ],
      "name": "SetPrecrime",
      "type": "event"
    },
    {
      "anonymous": false,
      "inputs": [
        {
          "indexed": false,
          "internalType": "uint16",
          "name": "_remoteChainId",
          "type": "uint16"
        },
        {
          "indexed": false,
          "internalType": "bytes",
          "name": "_path",
          "type": "bytes"
        }
      ],
      "name": "SetTrustedRemote",
      "type": "event"
    },
    {
      "anonymous": false,
      "inputs": [
        {
          "indexed": false,
          "internalType": "uint16",
          "name": "_remoteChainId",
          "type": "uint16"
        },
        {
          "indexed": false,
          "internalType": "bytes",
          "name": "_remoteAddress",
          "type": "bytes"
        }
      ],
      "name": "SetTrustedRemoteAddress",
      "type": "event"
    },
    {
      "anonymous": false,
      "inputs": [
        {
          "indexed": false,
          "internalType": "bool",
          "name": "_useCustomAdapterParams",
          "type": "bool"
        }
      ],
      "name": "SetUseCustomAdapterParams",
      "type": "event"
    },
    {
      "anonymous": false,
      "inputs": [
        {
          "indexed": true,
          "internalType": "address",
          "name": "from",
          "type": "address"
        },
        {
          "indexed": true,
          "internalType": "address",
          "name": "to",
          "type": "address"
        },
        {
          "indexed": false,
          "internalType": "uint256",
          "name": "value",
          "type": "uint256"
        }
      ],
      "name": "Transfer",
      "type": "event"
    },
    {
      "inputs": [],
      "name": "DEFAULT_PAYLOAD_SIZE_LIMIT",
      "outputs": [
        {
          "internalType": "uint256",
          "name": "",
          "type": "uint256"
        }
      ],
      "stateMutability": "view",
      "type": "function"
    },
    {
      "inputs": [],
      "name": "NO_EXTRA_GAS",
      "outputs": [
        {
          "internalType": "uint256",
          "name": "",
          "type": "uint256"
        }
      ],
      "stateMutability": "view",
      "type": "function"
    },
    {
      "inputs": [],
      "name": "PT_SEND",
      "outputs": [
        {
          "internalType": "uint8",
          "name": "",
          "type": "uint8"
        }
      ],
      "stateMutability": "view",
      "type": "function"
    },
    {
      "inputs": [],
      "name": "PT_SEND_AND_CALL",
      "outputs": [
        {
          "internalType": "uint8",
          "name": "",
          "type": "uint8"
        }
      ],
      "stateMutability": "view",
      "type": "function"
    },
    {
      "inputs": [
        {
          "internalType": "address",
          "name": "owner",
          "type": "address"
        },
        {
          "internalType": "address",
          "name": "spender",
          "type": "address"
        }
      ],
      "name": "allowance",
      "outputs": [
        {
          "internalType": "uint256",
          "name": "",
          "type": "uint256"
        }
      ],
      "stateMutability": "view",
      "type": "function"
    },
    {
      "inputs": [
        {
          "internalType": "address",
          "name": "spender",
          "type": "address"
        },
        {
          "internalType": "uint256",
          "name": "amount",
          "type": "uint256"
        }
      ],
      "name": "approve",
      "outputs": [
        {
          "internalType": "bool",
          "name": "",
          "type": "bool"
        }
      ],
      "stateMutability": "nonpayable",
      "type": "function"
    },
    {
      "inputs": [
        {
          "internalType": "address",
          "name": "account",
          "type": "address"
        }
      ],
      "name": "balanceOf",
      "outputs": [
        {
          "internalType": "uint256",
          "name": "",
          "type": "uint256"
        }
      ],
      "stateMutability": "view",
      "type": "function"
    },
    {
      "inputs": [
        {
          "internalType": "uint16",
          "name": "_srcChainId",
          "type": "uint16"
        },
        {
          "internalType": "bytes",
          "name": "_srcAddress",
          "type": "bytes"
        },
        {
          "internalType": "uint64",
          "name": "_nonce",
          "type": "uint64"
        },
        {
          "internalType": "bytes32",
          "name": "_from",
          "type": "bytes32"
        },
        {
          "internalType": "address",
          "name": "_to",
          "type": "address"
        },
        {
          "internalType": "uint256",
          "name": "_amount",
          "type": "uint256"
        },
        {
          "internalType": "bytes",
          "name": "_payload",
          "type": "bytes"
        },
        {
          "internalType": "uint256",
          "name": "_gasForCall",
          "type": "uint256"
        }
      ],
      "name": "callOnOFTReceived",
      "outputs": [],
      "stateMutability": "nonpayable",
      "type": "function"
    },
    {
      "inputs": [],
      "name": "circulatingSupply",
      "outputs": [
        {
          "internalType": "uint256",
          "name": "",
          "type": "uint256"
        }
      ],
      "stateMutability": "view",
      "type": "function"
    },
    {
      "inputs": [
        {
          "internalType": "uint16",
          "name": "",
          "type": "uint16"
        },
        {
          "internalType": "bytes",
          "name": "",
          "type": "bytes"
        },
        {
          "internalType": "uint64",
          "name": "",
          "type": "uint64"
        }
      ],
      "name": "creditedPackets",
      "outputs": [
        {
          "internalType": "bool",
          "name": "",
          "type": "bool"
        }
      ],
      "stateMutability": "view",
      "type": "function"
    },
    {
      "inputs": [],
      "name": "decimals",
      "outputs": [
        {
          "internalType": "uint8",
          "name": "",
          "type": "uint8"
        }
      ],
      "stateMutability": "view",
      "type": "function"
    },
    {
      "inputs": [
        {
          "internalType": "address",
          "name": "spender",
          "type": "address"
        },
        {
          "internalType": "uint256",
          "name": "subtractedValue",
          "type": "uint256"
        }
      ],
      "name": "decreaseAllowance",
      "outputs": [
        {
          "internalType": "bool",
          "name": "",
          "type": "bool"
        }
      ],
      "stateMutability": "nonpayable",
      "type": "function"
    },
    {
      "inputs": [
        {
          "internalType": "uint16",
          "name": "_dstChainId",
          "type": "uint16"
        },
        {
          "internalType": "bytes32",
          "name": "_toAddress",
          "type": "bytes32"
        },
        {
          "internalType": "uint256",
          "name": "_amount",
          "type": "uint256"
        },
        {
          "internalType": "bytes",
          "name": "_payload",
          "type": "bytes"
        },
        {
          "internalType": "uint64",
          "name": "_dstGasForCall",
          "type": "uint64"
        },
        {
          "internalType": "bool",
          "name": "_useZro",
          "type": "bool"
        },
        {
          "internalType": "bytes",
          "name": "_adapterParams",
          "type": "bytes"
        }
      ],
      "name": "estimateSendAndCallFee",
      "outputs": [
        {
          "internalType": "uint256",
          "name": "nativeFee",
          "type": "uint256"
        },
        {
          "internalType": "uint256",
          "name": "zroFee",
          "type": "uint256"
        }
      ],
      "stateMutability": "view",
      "type": "function"
    },
    {
      "inputs": [
        {
          "internalType": "uint16",
          "name": "_dstChainId",
          "type": "uint16"
        },
        {
          "internalType": "bytes32",
          "name": "_toAddress",
          "type": "bytes32"
        },
        {
          "internalType": "uint256",
          "name": "_amount",
          "type": "uint256"
        },
        {
          "internalType": "bool",
          "name": "_useZro",
          "type": "bool"
        },
        {
          "internalType": "bytes",
          "name": "_adapterParams",
          "type": "bytes"
        }
      ],
      "name": "estimateSendFee",
      "outputs": [
        {
          "internalType": "uint256",
          "name": "nativeFee",
          "type": "uint256"
        },
        {
          "internalType": "uint256",
          "name": "zroFee",
          "type": "uint256"
        }
      ],
      "stateMutability": "view",
      "type": "function"
    },
    {
      "inputs": [
        {
          "internalType": "uint16",
          "name": "",
          "type": "uint16"
        },
        {
          "internalType": "bytes",
          "name": "",
          "type": "bytes"
        },
        {
          "internalType": "uint64",
          "name": "",
          "type": "uint64"
        }
      ],
      "name": "failedMessages",
      "outputs": [
        {
          "internalType": "bytes32",
          "name": "",
          "type": "bytes32"
        }
      ],
      "stateMutability": "view",
      "type": "function"
    },
    {
      "inputs": [],
      "name": "fee",
      "outputs": [
        {
          "internalType": "uint256",
          "name": "",
          "type": "uint256"
        }
      ],
      "stateMutability": "view",
      "type": "function"
    },
    {
      "inputs": [
        {
          "internalType": "uint16",
          "name": "_srcChainId",
          "type": "uint16"
        },
        {
          "internalType": "bytes",
          "name": "_srcAddress",
          "type": "bytes"
        }
      ],
      "name": "forceResumeReceive",
      "outputs": [],
      "stateMutability": "nonpayable",
      "type": "function"
    },
    {
      "inputs": [
        {
          "internalType": "uint16",
          "name": "_version",
          "type": "uint16"
        },
        {
          "internalType": "uint16",
          "name": "_chainId",
          "type": "uint16"
        },
        {
          "internalType": "address",
          "name": "",
          "type": "address"
        },
        {
          "internalType": "uint256",
          "name": "_configType",
          "type": "uint256"
        }
      ],
      "name": "getConfig",
      "outputs": [
        {
          "internalType": "bytes",
          "name": "",
          "type": "bytes"
        }
      ],
      "stateMutability": "view",
      "type": "function"
    },
    {
      "inputs": [
        {
          "internalType": "uint16",
          "name": "_remoteChainId",
          "type": "uint16"
        }
      ],
      "name": "getTrustedRemoteAddress",
      "outputs": [
        {
          "internalType": "bytes",
          "name": "",
          "type": "bytes"
        }
      ],
      "stateMutability": "view",
      "type": "function"
    },
    {
      "inputs": [
        {
          "internalType": "address",
          "name": "spender",
          "type": "address"
        },
        {
          "internalType": "uint256",
          "name": "addedValue",
          "type": "uint256"
        }
      ],
      "name": "increaseAllowance",
      "outputs": [
        {
          "internalType": "bool",
          "name": "",
          "type": "bool"
        }
      ],
      "stateMutability": "nonpayable",
      "type": "function"
    },
    {
      "inputs": [
        {
          "internalType": "uint16",
          "name": "_srcChainId",
          "type": "uint16"
        },
        {
          "internalType": "bytes",
          "name": "_srcAddress",
          "type": "bytes"
        }
      ],
      "name": "isTrustedRemote",
      "outputs": [
        {
          "internalType": "bool",
          "name": "",
          "type": "bool"
        }
      ],
      "stateMutability": "view",
      "type": "function"
    },
    {
      "inputs": [],
      "name": "lzEndpoint",
      "outputs": [
        {
          "internalType": "contract ILayerZeroEndpoint",
          "name": "",
          "type": "address"
        }
      ],
      "stateMutability": "view",
      "type": "function"
    },
    {
      "inputs": [
        {
          "internalType": "uint16",
          "name": "_srcChainId",
          "type": "uint16"
        },
        {
          "internalType": "bytes",
          "name": "_srcAddress",
          "type": "bytes"
        },
        {
          "internalType": "uint64",
          "name": "_nonce",
          "type": "uint64"
        },
        {
          "internalType": "bytes",
          "name": "_payload",
          "type": "bytes"
        }
      ],
      "name": "lzReceive",
      "outputs": [],
      "stateMutability": "nonpayable",
      "type": "function"
    },
    {
      "inputs": [
        {
          "internalType": "uint16",
          "name": "",
          "type": "uint16"
        },
        {
          "internalType": "uint16",
          "name": "",
          "type": "uint16"
        }
      ],
      "name": "minDstGasLookup",
      "outputs": [
        {
          "internalType": "uint256",
          "name": "",
          "type": "uint256"
        }
      ],
      "stateMutability": "view",
      "type": "function"
    },
    {
      "inputs": [
        {
          "internalType": "address",
          "name": "_to",
          "type": "address"
        },
        {
          "internalType": "uint256",
          "name": "_amount",
          "type": "uint256"
        }
      ],
      "name": "mint",
      "outputs": [],
      "stateMutability": "payable",
      "type": "function"
    },
    {
      "inputs": [],
      "name": "name",
      "outputs": [
        {
          "internalType": "string",
          "name": "",
          "type": "string"
        }
      ],
      "stateMutability": "view",
      "type": "function"
    },
    {
      "inputs": [
        {
          "internalType": "uint16",
          "name": "_srcChainId",
          "type": "uint16"
        },
        {
          "internalType": "bytes",
          "name": "_srcAddress",
          "type": "bytes"
        },
        {
          "internalType": "uint64",
          "name": "_nonce",
          "type": "uint64"
        },
        {
          "internalType": "bytes",
          "name": "_payload",
          "type": "bytes"
        }
      ],
      "name": "nonblockingLzReceive",
      "outputs": [],
      "stateMutability": "nonpayable",
      "type": "function"
    },
    {
      "inputs": [],
      "name": "owner",
      "outputs": [
        {
          "internalType": "address",
          "name": "",
          "type": "address"
        }
      ],
      "stateMutability": "view",
      "type": "function"
    },
    {
      "inputs": [
        {
          "internalType": "uint16",
          "name": "",
          "type": "uint16"
        }
      ],
      "name": "payloadSizeLimitLookup",
      "outputs": [
        {
          "internalType": "uint256",
          "name": "",
          "type": "uint256"
        }
      ],
      "stateMutability": "view",
      "type": "function"
    },
    {
      "inputs": [],
      "name": "precrime",
      "outputs": [
        {
          "internalType": "address",
          "name": "",
          "type": "address"
        }
      ],
      "stateMutability": "view",
      "type": "function"
    },
    {
      "inputs": [],
      "name": "renounceOwnership",
      "outputs": [],
      "stateMutability": "nonpayable",
      "type": "function"
    },
    {
      "inputs": [
        {
          "internalType": "uint16",
          "name": "_srcChainId",
          "type": "uint16"
        },
        {
          "internalType": "bytes",
          "name": "_srcAddress",
          "type": "bytes"
        },
        {
          "internalType": "uint64",
          "name": "_nonce",
          "type": "uint64"
        },
        {
          "internalType": "bytes",
          "name": "_payload",
          "type": "bytes"
        }
      ],
      "name": "retryMessage",
      "outputs": [],
      "stateMutability": "payable",
      "type": "function"
    },
    {
      "inputs": [
        {
          "internalType": "address",
          "name": "_from",
          "type": "address"
        },
        {
          "internalType": "uint16",
          "name": "_dstChainId",
          "type": "uint16"
        },
        {
          "internalType": "bytes32",
          "name": "_toAddress",
          "type": "bytes32"
        },
        {
          "internalType": "uint256",
          "name": "_amount",
          "type": "uint256"
        },
        {
          "internalType": "bytes",
          "name": "_payload",
          "type": "bytes"
        },
        {
          "internalType": "uint64",
          "name": "_dstGasForCall",
          "type": "uint64"
        },
        {
          "components": [
            {
              "internalType": "address payable",
              "name": "refundAddress",
              "type": "address"
            },
            {
              "internalType": "address",
              "name": "zroPaymentAddress",
              "type": "address"
            },
            {
              "internalType": "bytes",
              "name": "adapterParams",
              "type": "bytes"
            }
          ],
          "internalType": "struct ICommonOFT.LzCallParams",
          "name": "_callParams",
          "type": "tuple"
        }
      ],
      "name": "sendAndCall",
      "outputs": [],
      "stateMutability": "payable",
      "type": "function"
    },
    {
      "inputs": [
        {
          "internalType": "address",
          "name": "_from",
          "type": "address"
        },
        {
          "internalType": "uint16",
          "name": "_dstChainId",
          "type": "uint16"
        },
        {
          "internalType": "bytes32",
          "name": "_toAddress",
          "type": "bytes32"
        },
        {
          "internalType": "uint256",
          "name": "_amount",
          "type": "uint256"
        },
        {
          "components": [
            {
              "internalType": "address payable",
              "name": "refundAddress",
              "type": "address"
            },
            {
              "internalType": "address",
              "name": "zroPaymentAddress",
              "type": "address"
            },
            {
              "internalType": "bytes",
              "name": "adapterParams",
              "type": "bytes"
            }
          ],
          "internalType": "struct ICommonOFT.LzCallParams",
          "name": "_callParams",
          "type": "tuple"
        }
      ],
      "name": "sendFrom",
      "outputs": [],
      "stateMutability": "payable",
      "type": "function"
    },
    {
      "inputs": [
        {
          "internalType": "uint16",
          "name": "_version",
          "type": "uint16"
        },
        {
          "internalType": "uint16",
          "name": "_chainId",
          "type": "uint16"
        },
        {
          "internalType": "uint256",
          "name": "_configType",
          "type": "uint256"
        },
        {
          "internalType": "bytes",
          "name": "_config",
          "type": "bytes"
        }
      ],
      "name": "setConfig",
      "outputs": [],
      "stateMutability": "nonpayable",
      "type": "function"
    },
    {
      "inputs": [
        {
          "internalType": "uint256",
          "name": "_fee",
          "type": "uint256"
        }
      ],
      "name": "setFee",
      "outputs": [],
      "stateMutability": "nonpayable",
      "type": "function"
    },
    {
      "inputs": [
        {
          "internalType": "uint16",
          "name": "_dstChainId",
          "type": "uint16"
        },
        {
          "internalType": "uint16",
          "name": "_packetType",
          "type": "uint16"
        },
        {
          "internalType": "uint256",
          "name": "_minGas",
          "type": "uint256"
        }
      ],
      "name": "setMinDstGas",
      "outputs": [],
      "stateMutability": "nonpayable",
      "type": "function"
    },
    {
      "inputs": [
        {
          "internalType": "uint16",
          "name": "_dstChainId",
          "type": "uint16"
        },
        {
          "internalType": "uint256",
          "name": "_size",
          "type": "uint256"
        }
      ],
      "name": "setPayloadSizeLimit",
      "outputs": [],
      "stateMutability": "nonpayable",
      "type": "function"
    },
    {
      "inputs": [
        {
          "internalType": "address",
          "name": "_precrime",
          "type": "address"
        }
      ],
      "name": "setPrecrime",
      "outputs": [],
      "stateMutability": "nonpayable",
      "type": "function"
    },
    {
      "inputs": [
        {
          "internalType": "uint16",
          "name": "_version",
          "type": "uint16"
        }
      ],
      "name": "setReceiveVersion",
      "outputs": [],
      "stateMutability": "nonpayable",
      "type": "function"
    },
    {
      "inputs": [
        {
          "internalType": "uint16",
          "name": "_version",
          "type": "uint16"
        }
      ],
      "name": "setSendVersion",
      "outputs": [],
      "stateMutability": "nonpayable",
      "type": "function"
    },
    {
      "inputs": [
        {
          "internalType": "uint16",
          "name": "_remoteChainId",
          "type": "uint16"
        },
        {
          "internalType": "bytes",
          "name": "_path",
          "type": "bytes"
        }
      ],
      "name": "setTrustedRemote",
      "outputs": [],
      "stateMutability": "nonpayable",
      "type": "function"
    },
    {
      "inputs": [
        {
          "internalType": "uint16",
          "name": "_remoteChainId",
          "type": "uint16"
        },
        {
          "internalType": "bytes",
          "name": "_remoteAddress",
          "type": "bytes"
        }
      ],
      "name": "setTrustedRemoteAddress",
      "outputs": [],
      "stateMutability": "nonpayable",
      "type": "function"
    },
    {
      "inputs": [
        {
          "internalType": "bool",
          "name": "_useCustomAdapterParams",
          "type": "bool"
        }
      ],
      "name": "setUseCustomAdapterParams",
      "outputs": [],
      "stateMutability": "nonpayable",
      "type": "function"
    },
    {
      "inputs": [],
      "name": "sharedDecimals",
      "outputs": [
        {
          "internalType": "uint8",
          "name": "",
          "type": "uint8"
        }
      ],
      "stateMutability": "view",
      "type": "function"
    },
    {
      "inputs": [
        {
          "internalType": "bytes4",
          "name": "interfaceId",
          "type": "bytes4"
        }
      ],
      "name": "supportsInterface",
      "outputs": [
        {
          "internalType": "bool",
          "name": "",
          "type": "bool"
        }
      ],
      "stateMutability": "view",
      "type": "function"
    },
    {
      "inputs": [],
      "name": "symbol",
      "outputs": [
        {
          "internalType": "string",
          "name": "",
          "type": "string"
        }
      ],
      "stateMutability": "view",
      "type": "function"
    },
    {
      "inputs": [],
      "name": "token",
      "outputs": [
        {
          "internalType": "address",
          "name": "",
          "type": "address"
        }
      ],
      "stateMutability": "view",
      "type": "function"
    },
    {
      "inputs": [],
      "name": "totalSupply",
      "outputs": [
        {
          "internalType": "uint256",
          "name": "",
          "type": "uint256"
        }
      ],
      "stateMutability": "view",
      "type": "function"
    },
    {
      "inputs": [
        {
          "internalType": "address",
          "name": "to",
          "type": "address"
        },
        {
          "internalType": "uint256",
          "name": "amount",
          "type": "uint256"
        }
      ],
      "name": "transfer",
      "outputs": [
        {
          "internalType": "bool",
          "name": "",
          "type": "bool"
        }
      ],
      "stateMutability": "nonpayable",
      "type": "function"
    },
    {
      "inputs": [
        {
          "internalType": "address",
          "name": "from",
          "type": "address"
        },
        {
          "internalType": "address",
          "name": "to",
          "type": "address"
        },
        {
          "internalType": "uint256",
          "name": "amount",
          "type": "uint256"
        }
      ],
      "name": "transferFrom",
      "outputs": [
        {
          "internalType": "bool",
          "name": "",
          "type": "bool"
        }
      ],
      "stateMutability": "nonpayable",
      "type": "function"
    },
    {
      "inputs": [
        {
          "internalType": "address",
          "name": "newOwner",
          "type": "address"
        }
      ],
      "name": "transferOwnership",
      "outputs": [],
      "stateMutability": "nonpayable",
      "type": "function"
    },
    {
      "inputs": [
        {
          "internalType": "uint16",
          "name": "",
          "type": "uint16"
        }
      ],
      "name": "trustedRemoteLookup",
      "outputs": [
        {
          "internalType": "bytes",
          "name": "",
          "type": "bytes"
        }
      ],
      "stateMutability": "view",
      "type": "function"
    },
    {
      "inputs": [],
      "name": "useCustomAdapterParams",
      "outputs": [
        {
          "internalType": "bool",
          "name": "",
          "type": "bool"
        }
      ],
      "stateMutability": "view",
      "type": "function"
    },
    {
      "inputs": [],
      "name": "withdraw",
      "outputs": [],
      "stateMutability": "payable",
      "type": "function"
    }
  ],
  "transactionHash": "0xe60826fa704d3cf91dc06ea52ac1c713a26001c5e856c4e92714ad802c7fb3b0",
  "args": [
    "LayerSyncOFT",
    "LST",
    "8",
    "0x4EE2F9B7cf3A68966c370F3eb2C16613d3235245"
  ],
  "numDeployments": 1,
  "solcInputHash": "a5a371d315f36fefa103db580cee86d1",
  "bytecode": "0x60e0604052650246139ca800600d553480156200001b57600080fd5b5060405162004b4538038062004b458339810160408190526200003e916200030c565b838383838383838381818080620000553362000144565b6001600160a01b0316608052505060ff1660a052505081516200008090600b90602085019062000199565b5080516200009690600c90602084019062000199565b5050506000620000ab6200019460201b60201c565b90508060ff168360ff161115620001185760405162461bcd60e51b815260206004820152602760248201527f4f46543a20736861726564446563696d616c73206d757374206265203c3d20646044820152666563696d616c7360c81b606482015260840160405180910390fd5b620001248382620003c6565b6200013190600a620004eb565b60c0525062000540975050505050505050565b600080546001600160a01b038381166001600160a01b0319831681178455604051919092169283917f8be0079c531659141344cd1fd0a4f28419497f9722a3daafe3b4186f6b6457e09190a35050565b601290565b828054620001a79062000503565b90600052602060002090601f016020900481019282620001cb576000855562000216565b82601f10620001e657805160ff191683800117855562000216565b8280016001018555821562000216579182015b8281111562000216578251825591602001919060010190620001f9565b506200022492915062000228565b5090565b5b8082111562000224576000815560010162000229565b634e487b7160e01b600052604160045260246000fd5b600082601f8301126200026757600080fd5b81516001600160401b03808211156200028457620002846200023f565b604051601f8301601f19908116603f01168101908282118183101715620002af57620002af6200023f565b81604052838152602092508683858801011115620002cc57600080fd5b600091505b83821015620002f05785820183015181830184015290820190620002d1565b83821115620003025760008385830101525b9695505050505050565b600080600080608085870312156200032357600080fd5b84516001600160401b03808211156200033b57600080fd5b620003498883890162000255565b955060208701519150808211156200036057600080fd5b506200036f8782880162000255565b935050604085015160ff811681146200038757600080fd5b60608601519092506001600160a01b0381168114620003a557600080fd5b939692955090935050565b634e487b7160e01b600052601160045260246000fd5b600060ff821660ff841680821015620003e357620003e3620003b0565b90039392505050565b600181815b808511156200042d578160001904821115620004115762000411620003b0565b808516156200041f57918102915b93841c9390800290620003f1565b509250929050565b6000826200044657506001620004e5565b816200045557506000620004e5565b81600181146200046e5760028114620004795762000499565b6001915050620004e5565b60ff8411156200048d576200048d620003b0565b50506001821b620004e5565b5060208310610133831016604e8410600b8410161715620004be575081810a620004e5565b620004ca8383620003ec565b8060001904821115620004e157620004e1620003b0565b0290505b92915050565b6000620004fc60ff84168362000435565b9392505050565b600181811c908216806200051857607f821691505b602082108114156200053a57634e487b7160e01b600052602260045260246000fd5b50919050565b60805160a05160c051614588620005bd6000396000818161298501528181612d7f015261305c015260006106e70152600081816108c101528181610a8701528181610d9f01528181610e5f015281816110ef0152818161176401528181611d2b0152818161222f015281816127710152612f1301526145886000f3fe60806040526004361061034f5760003560e01c8063857749b0116101c6578063c4461834116100f7578063eab45d9c11610095578063ed629c5c1161006f578063ed629c5c14610a17578063f2fde38b14610a31578063f5ecbdbc14610a51578063fc0c546a14610a7157600080fd5b8063eab45d9c146109b7578063eaffd49a146109d7578063eb8d72b7146109f757600080fd5b8063dd62ed3e116100d1578063dd62ed3e1461094c578063ddca3f431461096c578063df2a5b3b14610982578063e6a20ae6146109a257600080fd5b8063c446183414610903578063cbed8b9c14610919578063d1deba1f1461093957600080fd5b80639f38369a11610164578063a6c3d1651161013e578063a6c3d1651461086f578063a9059cbb1461088f578063b353aaa7146108af578063baf3292d146108e357600080fd5b80639f38369a1461080f578063a457c2d71461082f578063a4c51df51461084f57600080fd5b80639358928b116101a05780639358928b14610773578063950c8a741461078857806395d89b41146107a85780639bdb9812146107bd57600080fd5b8063857749b0146106d55780638cfd8f5c146107095780638da5cb5b1461074157600080fd5b80633d8b38f6116102a057806366ad5c8a1161023e57806370a082311161021857806370a0823114610657578063715018a61461068d5780637533d788146106a257806376203b48146106c257600080fd5b806366ad5c8a14610604578063695ef6bf1461062457806369fe0e2d1461063757600080fd5b806342d65a8d1161027a57806342d65a8d1461056b578063447705151461058b5780634c42899a146105a05780635b8c41e6146105b557600080fd5b80633d8b38f61461050b5780633f1f4fa41461052b57806340c10f191461055857600080fd5b806310ddb1371161030d578063313ce567116102e7578063313ce5671461048c578063365260b4146104ae57806339509351146104e35780633ccfd60b1461050357600080fd5b806310ddb1371461042d57806318160ddd1461044d57806323b872dd1461046c57600080fd5b80621d35671461035457806301ffc9a71461037657806306fdde03146103ab57806307e0db17146103cd578063095ea7b3146103ed5780630df374831461040d575b600080fd5b34801561036057600080fd5b5061037461036f3660046136d4565b610a84565b005b34801561038257600080fd5b50610396610391366004613767565b610cb5565b60405190151581526020015b60405180910390f35b3480156103b757600080fd5b506103c0610cec565b6040516103a291906137e9565b3480156103d957600080fd5b506103746103e83660046137fc565b610d7e565b3480156103f957600080fd5b5061039661040836600461382c565b610e07565b34801561041957600080fd5b50610374610428366004613858565b610e1f565b34801561043957600080fd5b506103746104483660046137fc565b610e3e565b34801561045957600080fd5b50600a545b6040519081526020016103a2565b34801561047857600080fd5b50610396610487366004613874565b610e96565b34801561049857600080fd5b5060125b60405160ff90911681526020016103a2565b3480156104ba57600080fd5b506104ce6104c93660046138c5565b610eba565b604080519283526020830191909152016103a2565b3480156104ef57600080fd5b506103966104fe36600461382c565b610f0f565b610374610f31565b34801561051757600080fd5b5061039661052636600461392a565b610f91565b34801561053757600080fd5b5061045e6105463660046137fc565b60036020526000908152604090205481565b61037461056636600461382c565b61105d565b34801561057757600080fd5b5061037461058636600461392a565b6110d0565b34801561059757600080fd5b5061045e600081565b3480156105ac57600080fd5b5061049c600081565b3480156105c157600080fd5b5061045e6105d03660046139e9565b6005602090815260009384526040808520845180860184018051928152908401958401959095209452929052825290205481565b34801561061057600080fd5b5061037461061f3660046136d4565b611156565b610374610632366004613aa1565b611232565b34801561064357600080fd5b50610374610652366004613b14565b61129d565b34801561066357600080fd5b5061045e610672366004613b2d565b6001600160a01b031660009081526008602052604090205490565b34801561069957600080fd5b506103746112aa565b3480156106ae57600080fd5b506103c06106bd3660046137fc565b6112be565b6103746106d0366004613b4a565b611358565b3480156106e157600080fd5b5061049c7f000000000000000000000000000000000000000000000000000000000000000081565b34801561071557600080fd5b5061045e610724366004613bfc565b600260209081526000928352604080842090915290825290205481565b34801561074d57600080fd5b506000546001600160a01b03165b6040516001600160a01b0390911681526020016103a2565b34801561077f57600080fd5b5061045e611407565b34801561079457600080fd5b5060045461075b906001600160a01b031681565b3480156107b457600080fd5b506103c0611417565b3480156107c957600080fd5b506103966107d83660046139e9565b6007602090815260009384526040808520845180860184018051928152908401958401959095209452929052825290205460ff1681565b34801561081b57600080fd5b506103c061082a3660046137fc565b611426565b34801561083b57600080fd5b5061039661084a36600461382c565b61153d565b34801561085b57600080fd5b506104ce61086a366004613c2f565b6115b8565b34801561087b57600080fd5b5061037461088a36600461392a565b611647565b34801561089b57600080fd5b506103966108aa36600461382c565b6116da565b3480156108bb57600080fd5b5061075b7f000000000000000000000000000000000000000000000000000000000000000081565b3480156108ef57600080fd5b506103746108fe366004613b2d565b6116e8565b34801561090f57600080fd5b5061045e61271081565b34801561092557600080fd5b50610374610934366004613ce8565b611745565b6103746109473660046136d4565b6117cf565b34801561095857600080fd5b5061045e610967366004613d56565b6119e5565b34801561097857600080fd5b5061045e600d5481565b34801561098e57600080fd5b5061037461099d366004613d8f565b611a10565b3480156109ae57600080fd5b5061049c600181565b3480156109c357600080fd5b506103746109d2366004613dcb565b611ac2565b3480156109e357600080fd5b506103746109f2366004613de6565b611b0b565b348015610a0357600080fd5b50610374610a1236600461392a565b611c2a565b348015610a2357600080fd5b506006546103969060ff1681565b348015610a3d57600080fd5b50610374610a4c366004613b2d565b611c84565b348015610a5d57600080fd5b506103c0610a6c366004613eae565b611cfa565b348015610a7d57600080fd5b503061075b565b337f00000000000000000000000000000000000000000000000000000000000000006001600160a01b031614610b015760405162461bcd60e51b815260206004820152601e60248201527f4c7a4170703a20696e76616c696420656e64706f696e742063616c6c6572000060448201526064015b60405180910390fd5b61ffff861660009081526001602052604081208054610b1f90613efb565b80601f0160208091040260200160405190810160405280929190818152602001828054610b4b90613efb565b8015610b985780601f10610b6d57610100808354040283529160200191610b98565b820191906000526020600020905b815481529060010190602001808311610b7b57829003601f168201915b50505050509050805186869050148015610bb3575060008151115b8015610bdb575080516020820120604051610bd19088908890613f30565b6040518091039020145b610c365760405162461bcd60e51b815260206004820152602660248201527f4c7a4170703a20696e76616c696420736f757263652073656e64696e6720636f6044820152651b9d1c9858dd60d21b6064820152608401610af8565b610cac8787878080601f01602080910402602001604051908101604052809392919081815260200183838082843760009201919091525050604080516020601f8a018190048102820181019092528881528a935091508890889081908401838280828437600092019190915250611dab92505050565b50505050505050565b60006001600160e01b03198216631f7ecdf760e01b1480610ce657506301ffc9a760e01b6001600160e01b03198316145b92915050565b6060600b8054610cfb90613efb565b80601f0160208091040260200160405190810160405280929190818152602001828054610d2790613efb565b8015610d745780601f10610d4957610100808354040283529160200191610d74565b820191906000526020600020905b815481529060010190602001808311610d5757829003601f168201915b5050505050905090565b610d86611e24565b6040516307e0db1760e01b815261ffff821660048201527f00000000000000000000000000000000000000000000000000000000000000006001600160a01b0316906307e0db17906024015b600060405180830381600087803b158015610dec57600080fd5b505af1158015610e00573d6000803e3d6000fd5b5050505050565b600033610e15818585611e7e565b5060019392505050565b610e27611e24565b61ffff909116600090815260036020526040902055565b610e46611e24565b6040516310ddb13760e01b815261ffff821660048201527f00000000000000000000000000000000000000000000000000000000000000006001600160a01b0316906310ddb13790602401610dd2565b600033610ea4858285611fa2565b610eaf85858561201c565b506001949350505050565b600080610f008888888888888080601f0160208091040260200160405190810160405280939291908181526020018383808284376000920191909152506121c792505050565b91509150965096945050505050565b600033610e15818585610f2283836119e5565b610f2c9190613f56565b611e7e565b610f39611e24565b604051600090339047908381818185875af1925050503d8060008114610f7b576040519150601f19603f3d011682016040523d82523d6000602084013e610f80565b606091505b5050905080610f8e57600080fd5b50565b61ffff831660009081526001602052604081208054829190610fb290613efb565b80601f0160208091040260200160405190810160405280929190818152602001828054610fde90613efb565b801561102b5780601f106110005761010080835404028352916020019161102b565b820191906000526020600020905b81548152906001019060200180831161100e57829003601f168201915b505050505090508383604051611042929190613f30565b60405180910390208180519060200120149150509392505050565b34600d548261106c9190613f6e565b11156110ad5760405162461bcd60e51b815260206004820152601060248201526f2737ba1032b737bab3b41032ba3432b960811b6044820152606401610af8565b6110cc826110bd6012600a614071565b6110c79084613f6e565b6122bb565b5050565b6110d8611e24565b6040516342d65a8d60e01b81526001600160a01b037f000000000000000000000000000000000000000000000000000000000000000016906342d65a8d90611128908690869086906004016140a9565b600060405180830381600087803b15801561114257600080fd5b505af1158015610cac573d6000803e3d6000fd5b3330146111b45760405162461bcd60e51b815260206004820152602660248201527f4e6f6e626c6f636b696e674c7a4170703a2063616c6c6572206d7573742062656044820152650204c7a4170760d41b6064820152608401610af8565b61122a8686868080601f01602080910402602001604051908101604052809392919081815260200183838082843760009201919091525050604080516020601f89018190048102820181019092528781528993509150879087908190840183828082843760009201919091525061237c92505050565b505050505050565b61122a858585856112466020870187613b2d565b6112566040880160208901613b2d565b61126360408901896140c7565b8080601f01602080910402602001604051908101604052809392919081815260200183838082843760009201919091525061240392505050565b6112a5611e24565b600d55565b6112b2611e24565b6112bc60006124eb565b565b600160205260009081526040902080546112d790613efb565b80601f016020809104026020016040519081016040528092919081815260200182805461130390613efb565b80156113505780601f1061132557610100808354040283529160200191611350565b820191906000526020600020905b81548152906001019060200180831161133357829003601f168201915b505050505081565b6113fc8888888888888080601f0160208091040260200160405190810160405280939291908181526020018383808284376000920191909152508a92506113a59150506020890189613b2d565b6113b560408a0160208b01613b2d565b6113c260408b018b6140c7565b8080601f01602080910402602001604051908101604052809392919081815260200183838082843760009201919091525061253b92505050565b505050505050505050565b6000611412600a5490565b905090565b6060600c8054610cfb90613efb565b61ffff811660009081526001602052604081208054606092919061144990613efb565b80601f016020809104026020016040519081016040528092919081815260200182805461147590613efb565b80156114c25780601f10611497576101008083540402835291602001916114c2565b820191906000526020600020905b8154815290600101906020018083116114a557829003601f168201915b5050505050905080516000141561151b5760405162461bcd60e51b815260206004820152601d60248201527f4c7a4170703a206e6f20747275737465642070617468207265636f72640000006044820152606401610af8565b61153660006014835161152e919061410d565b839190612637565b9392505050565b6000338161154b82866119e5565b9050838110156115ab5760405162461bcd60e51b815260206004820152602560248201527f45524332303a2064656372656173656420616c6c6f77616e63652062656c6f77604482015264207a65726f60d81b6064820152608401610af8565b610eaf8286868403611e7e565b6000806116358b8b8b8b8b8080601f01602080910402602001604051908101604052809392919081815260200183838082843760009201919091525050604080516020601f8d018190048102820181019092528b81528e93508d9250908c908c908190840183828082843760009201919091525061274492505050565b91509150995099975050505050505050565b61164f611e24565b81813060405160200161166493929190614124565b60408051601f1981840301815291815261ffff8516600090815260016020908152919020825161169993919290910190613551565b507f8c0400cfe2d1199b1a725c78960bcc2a344d869b80590d0f2bd005db15a572ce8383836040516116cd939291906140a9565b60405180910390a1505050565b600033610e1581858561201c565b6116f0611e24565b600480546001600160a01b0319166001600160a01b0383169081179091556040519081527f5db758e995a17ec1ad84bdef7e8c3293a0bd6179bcce400dff5d4c3d87db726b906020015b60405180910390a150565b61174d611e24565b6040516332fb62e760e21b81526001600160a01b037f0000000000000000000000000000000000000000000000000000000000000000169063cbed8b9c906117a1908890889088908890889060040161414a565b600060405180830381600087803b1580156117bb57600080fd5b505af11580156113fc573d6000803e3d6000fd5b61ffff861660009081526005602052604080822090516117f29088908890613f30565b90815260408051602092819003830190206001600160401b038716600090815292529020549050806118725760405162461bcd60e51b815260206004820152602360248201527f4e6f6e626c6f636b696e674c7a4170703a206e6f2073746f726564206d65737360448201526261676560e81b6064820152608401610af8565b808383604051611883929190613f30565b6040518091039020146118e25760405162461bcd60e51b815260206004820152602160248201527f4e6f6e626c6f636b696e674c7a4170703a20696e76616c6964207061796c6f616044820152601960fa1b6064820152608401610af8565b61ffff871660009081526005602052604080822090516119059089908990613f30565b90815260408051602092819003830181206001600160401b038916600090815290845282902093909355601f8801829004820283018201905286825261199d918991899089908190840183828082843760009201919091525050604080516020601f8a018190048102820181019092528881528a93509150889088908190840183828082843760009201919091525061237c92505050565b7fc264d91f3adc5588250e1551f547752ca0cfa8f6b530d243b9f9f4cab10ea8e587878787856040516119d4959493929190614183565b60405180910390a150505050505050565b6001600160a01b03918216600090815260096020908152604080832093909416825291909152205490565b611a18611e24565b60008111611a605760405162461bcd60e51b81526020600482015260156024820152744c7a4170703a20696e76616c6964206d696e47617360581b6044820152606401610af8565b61ffff83811660008181526002602090815260408083209487168084529482529182902085905581519283528201929092529081018290527f9d5c7c0b934da8fefa9c7760c98383778a12dfbfc0c3b3106518f43fb9508ac0906060016116cd565b611aca611e24565b6006805460ff19168215159081179091556040519081527f1584ad594a70cbe1e6515592e1272a987d922b097ead875069cebe8b40c004a49060200161173a565b333014611b5a5760405162461bcd60e51b815260206004820152601f60248201527f4f4654436f72653a2063616c6c6572206d757374206265204f4654436f7265006044820152606401610af8565b611b653086866127ff565b9350846001600160a01b03168a61ffff167fbf551ec93859b170f9b2141bd9298bf3f64322c6f7beb2543a0cb669834118bf86604051611ba791815260200190565b60405180910390a3604051633fe79aed60e11b81526001600160a01b03861690637fcf35da908390611beb908e908e908e908e908e908d908d908d906004016141be565b600060405180830381600088803b158015611c0557600080fd5b5087f1158015611c19573d6000803e3d6000fd5b505050505050505050505050505050565b611c32611e24565b61ffff83166000908152600160205260409020611c509083836135d5565b507ffa41487ad5d6728f0b19276fa1eddc16558578f5109fc39d2dc33c3230470dab8383836040516116cd939291906140a9565b611c8c611e24565b6001600160a01b038116611cf15760405162461bcd60e51b815260206004820152602660248201527f4f776e61626c653a206e6577206f776e657220697320746865207a65726f206160448201526564647265737360d01b6064820152608401610af8565b610f8e816124eb565b604051633d7b2f6f60e21b815261ffff808616600483015284166024820152306044820152606481018290526060907f00000000000000000000000000000000000000000000000000000000000000006001600160a01b03169063f5ecbdbc90608401600060405180830381865afa158015611d7a573d6000803e3d6000fd5b505050506040513d6000823e601f3d908101601f19168201604052611da29190810190614219565b95945050505050565b600080611e0e5a60966366ad5c8a60e01b89898989604051602401611dd39493929190614286565b60408051601f198184030181529190526020810180516001600160e01b03166001600160e01b03199093169290921790915230929190612851565b915091508161122a5761122a86868686856128db565b6000546001600160a01b031633146112bc5760405162461bcd60e51b815260206004820181905260248201527f4f776e61626c653a2063616c6c6572206973206e6f7420746865206f776e65726044820152606401610af8565b6001600160a01b038316611ee05760405162461bcd60e51b8152602060048201526024808201527f45524332303a20617070726f76652066726f6d20746865207a65726f206164646044820152637265737360e01b6064820152608401610af8565b6001600160a01b038216611f415760405162461bcd60e51b815260206004820152602260248201527f45524332303a20617070726f766520746f20746865207a65726f206164647265604482015261737360f01b6064820152608401610af8565b6001600160a01b0383811660008181526009602090815260408083209487168084529482529182902085905590518481527f8c5be1e5ebec7d5bd14f71427d1e84f3dd0314c0f7b2291e5b200ac8c7c3b925910160405180910390a3505050565b6000611fae84846119e5565b9050600019811461201657818110156120095760405162461bcd60e51b815260206004820152601d60248201527f45524332303a20696e73756666696369656e7420616c6c6f77616e63650000006044820152606401610af8565b6120168484848403611e7e565b50505050565b6001600160a01b0383166120805760405162461bcd60e51b815260206004820152602560248201527f45524332303a207472616e736665722066726f6d20746865207a65726f206164604482015264647265737360d81b6064820152608401610af8565b6001600160a01b0382166120e25760405162461bcd60e51b815260206004820152602360248201527f45524332303a207472616e7366657220746f20746865207a65726f206164647260448201526265737360e81b6064820152608401610af8565b6001600160a01b0383166000908152600860205260409020548181101561215a5760405162461bcd60e51b815260206004820152602660248201527f45524332303a207472616e7366657220616d6f756e7420657863656564732062604482015265616c616e636560d01b6064820152608401610af8565b6001600160a01b0380851660008181526008602052604080822086860390559286168082529083902080548601905591517fddf252ad1be2c89b69c2b068fc378daa952ba7f163c4a11628f55a4df523b3ef906121ba9086815260200190565b60405180910390a3612016565b6000806000612215876121d98861297d565b6040805160006020820152602181019390935260c09190911b6001600160c01b0319166041830152805160298184030181526049909201905290565b60405163040a7bb160e41b81529091506001600160a01b037f000000000000000000000000000000000000000000000000000000000000000016906340a7bb109061226c908b90309086908b908b906004016142c4565b6040805180830381865afa158015612288573d6000803e3d6000fd5b505050506040513d601f19601f820116820180604052508101906122ac9190614318565b92509250509550959350505050565b6001600160a01b0382166123115760405162461bcd60e51b815260206004820152601f60248201527f45524332303a206d696e7420746f20746865207a65726f2061646472657373006044820152606401610af8565b80600a60008282546123239190613f56565b90915550506001600160a01b0382166000818152600860209081526040808320805486019055518481527fddf252ad1be2c89b69c2b068fc378daa952ba7f163c4a11628f55a4df523b3ef910160405180910390a35050565b60006123888282612a03565b905060ff81166123a35761239e85858585612a5f565b610e00565b60ff8116600114156123bb5761239e85858585612aef565b60405162461bcd60e51b815260206004820152601c60248201527f4f4654436f72653a20756e6b6e6f776e207061636b65742074797065000000006044820152606401610af8565b600061241187828481612cfd565b61241a85612d77565b50905061242988888884612db7565b9050600081116124775760405162461bcd60e51b815260206004820152601960248201527813d19510dbdc994e88185b5bdd5b9d081d1bdbc81cdb585b1b603a1b6044820152606401610af8565b6000612486876121d98461297d565b9050612496888287878734612de9565b86896001600160a01b03168961ffff167fd81fc9b8523134ed613870ed029d6170cbb73aa6a6bc311b9a642689fb9df59a856040516124d791815260200190565b60405180910390a450979650505050505050565b600080546001600160a01b038381166001600160a01b0319831681178455604051919092169283917f8be0079c531659141344cd1fd0a4f28419497f9722a3daafe3b4186f6b6457e09190a35050565b6000612553896001846001600160401b038916612cfd565b61255c87612d77565b50905061256b8a8a8a84612db7565b9050600081116125b95760405162461bcd60e51b815260206004820152601960248201527813d19510dbdc994e88185b5bdd5b9d081d1bdbc81cdb585b1b603a1b6044820152606401610af8565b60006125d0338a6125c98561297d565b8a8a612f8f565b90506125e08a8287878734612de9565b888b6001600160a01b03168b61ffff167fd81fc9b8523134ed613870ed029d6170cbb73aa6a6bc311b9a642689fb9df59a8560405161262191815260200190565b60405180910390a4509998505050505050505050565b60608161264581601f613f56565b10156126845760405162461bcd60e51b815260206004820152600e60248201526d736c6963655f6f766572666c6f7760901b6044820152606401610af8565b61268e8284613f56565b845110156126d25760405162461bcd60e51b8152602060048201526011602482015270736c6963655f6f75744f66426f756e647360781b6044820152606401610af8565b6060821580156126f1576040519150600082526020820160405261273b565b6040519150601f8416801560200281840101858101878315602002848b0101015b8183101561272a578051835260209283019201612712565b5050858452601f01601f1916604052505b50949350505050565b6000806000612757338a6125c98b61297d565b60405163040a7bb160e41b81529091506001600160a01b037f000000000000000000000000000000000000000000000000000000000000000016906340a7bb10906127ae908d90309086908b908b906004016142c4565b6040805180830381865afa1580156127ca573d6000803e3d6000fd5b505050506040513d601f19601f820116820180604052508101906127ee9190614318565b925092505097509795505050505050565b600033306001600160a01b0386161480159061282d5750806001600160a01b0316856001600160a01b031614155b1561283d5761283d858285611fa2565b61284885858561201c565b50909392505050565b6000606060008060008661ffff166001600160401b038111156128765761287661397c565b6040519080825280601f01601f1916602001820160405280156128a0576020820181803683370190505b50905060008087516020890160008d8df191503d9250868311156128c2578692505b828152826000602083013e909890975095505050505050565b8180519060200120600560008761ffff1661ffff1681526020019081526020016000208560405161290c919061433c565b9081526040805191829003602090810183206001600160401b0388166000908152915220919091557fe183f33de2837795525b4792ca4cd60535bd77c53b7e7030060bfcf5734d6b0c906129699087908790879087908790614358565b60405180910390a15050505050565b505050565b6000806129aa7f0000000000000000000000000000000000000000000000000000000000000000846143c0565b90506001600160401b03811115610ce65760405162461bcd60e51b815260206004820152601a60248201527f4f4654436f72653a20616d6f756e745344206f766572666c6f770000000000006044820152606401610af8565b6000612a10826001613f56565b83511015612a565760405162461bcd60e51b8152602060048201526013602482015272746f55696e74385f6f75744f66426f756e647360681b6044820152606401610af8565b50016001015190565b600080612a6b83612fd0565b90925090506001600160a01b038216612a845761dead91505b6000612a8f82613055565b9050612a9c87848361308a565b9050826001600160a01b03168761ffff167fbf551ec93859b170f9b2141bd9298bf3f64322c6f7beb2543a0cb669834118bf83604051612ade91815260200190565b60405180910390a350505050505050565b6000806000806000612b008661309d565b945094509450945094506000600760008b61ffff1661ffff16815260200190815260200160002089604051612b35919061433c565b90815260408051602092819003830190206001600160401b038b166000908152925281205460ff169150612b6885613055565b905081612bd657612b7a8b308361308a565b61ffff8c16600090815260076020526040908190209051919250600191612ba2908d9061433c565b90815260408051602092819003830190206001600160401b038d16600090815292529020805460ff19169115159190911790555b6001600160a01b0386163b612c2d576040516001600160a01b03871681527f9aedf5fdba8716db3b6705ca00150643309995d4f818a249ed6dde6677e7792d9060200160405180910390a150505050505050612016565b8a8a8a8a8a8a868a60008a612c4b578b6001600160401b0316612c4d565b5a5b9050600080612c7f5a609663eaffd49a60e01b8e8e8e8d8d8d8d8d604051602401611dd39897969594939291906143d4565b915091508115612cd8578751602089012060405161ffff8d16907fb8890edbfc1c74692f527444645f95489c3703cc2df42e4a366f5d06fa6cd88490612cca908e908e908690614448565b60405180910390a250612ce5565b612ce58b8b8b8b856128db565b50505050505050505050505050505050505050505050565b60065460ff1615612d1957612d1484848484613154565b612016565b8151156120165760405162461bcd60e51b815260206004820152602660248201527f4f4654436f72653a205f61646170746572506172616d73206d7573742062652060448201526532b6b83a3c9760d11b6064820152608401610af8565b600080612da47f000000000000000000000000000000000000000000000000000000000000000084614476565b9050612db0818461410d565b9150915091565b6000336001600160a01b0386168114612dd557612dd5868285611fa2565b612ddf8684613233565b5090949350505050565b61ffff861660009081526001602052604081208054612e0790613efb565b80601f0160208091040260200160405190810160405280929190818152602001828054612e3390613efb565b8015612e805780601f10612e5557610100808354040283529160200191612e80565b820191906000526020600020905b815481529060010190602001808311612e6357829003601f168201915b50505050509050805160001415612ef25760405162461bcd60e51b815260206004820152603060248201527f4c7a4170703a2064657374696e6174696f6e20636861696e206973206e6f742060448201526f61207472757374656420736f7572636560801b6064820152608401610af8565b612efd878751613367565b60405162c5803160e81b81526001600160a01b037f0000000000000000000000000000000000000000000000000000000000000000169063c5803100908490612f54908b9086908c908c908c908c9060040161448a565b6000604051808303818588803b158015612f6d57600080fd5b505af1158015612f81573d6000803e3d6000fd5b505050505050505050505050565b6060600185856001600160a01b0389168587604051602001612fb6969594939291906144f1565b604051602081830303815290604052905095945050505050565b60008080612fde8482612a03565b60ff16148015612fef575082516029145b6130365760405162461bcd60e51b815260206004820152601860248201527713d19510dbdc994e881a5b9d985b1a59081c185e5b1bd85960421b6044820152606401610af8565b61304183600d6133d5565b915061304e83602161343a565b9050915091565b6000610ce67f00000000000000000000000000000000000000000000000000000000000000006001600160401b038416613f6e565b600061309683836122bb565b5092915050565b6000808060608160016130b08783612a03565b60ff16146130fb5760405162461bcd60e51b815260206004820152601860248201527713d19510dbdc994e881a5b9d985b1a59081c185e5b1bd85960421b6044820152606401610af8565b61310686600d6133d5565b935061311386602161343a565b9250613120866029613497565b945061312d86604961343a565b90506131496051808851613141919061410d565b889190612637565b915091939590929450565b600061315f836134f5565b61ffff808716600090815260026020908152604080832093891683529290529081205491925090613191908490613f56565b9050600081116131e35760405162461bcd60e51b815260206004820152601a60248201527f4c7a4170703a206d696e4761734c696d6974206e6f74207365740000000000006044820152606401610af8565b8082101561122a5760405162461bcd60e51b815260206004820152601b60248201527f4c7a4170703a20676173206c696d697420697320746f6f206c6f7700000000006044820152606401610af8565b6001600160a01b0382166132935760405162461bcd60e51b815260206004820152602160248201527f45524332303a206275726e2066726f6d20746865207a65726f206164647265736044820152607360f81b6064820152608401610af8565b6001600160a01b038216600090815260086020526040902054818110156133075760405162461bcd60e51b815260206004820152602260248201527f45524332303a206275726e20616d6f756e7420657863656564732062616c616e604482015261636560f01b6064820152608401610af8565b6001600160a01b03831660008181526008602090815260408083208686039055600a80548790039055518581529192917fddf252ad1be2c89b69c2b068fc378daa952ba7f163c4a11628f55a4df523b3ef910160405180910390a3505050565b61ffff82166000908152600360205260409020548061338557506127105b808211156129785760405162461bcd60e51b815260206004820181905260248201527f4c7a4170703a207061796c6f61642073697a6520697320746f6f206c617267656044820152606401610af8565b60006133e2826014613f56565b8351101561342a5760405162461bcd60e51b8152602060048201526015602482015274746f416464726573735f6f75744f66426f756e647360581b6044820152606401610af8565b500160200151600160601b900490565b6000613447826008613f56565b8351101561348e5760405162461bcd60e51b8152602060048201526014602482015273746f55696e7436345f6f75744f66426f756e647360601b6044820152606401610af8565b50016008015190565b60006134a4826020613f56565b835110156134ec5760405162461bcd60e51b8152602060048201526015602482015274746f427974657333325f6f75744f66426f756e647360581b6044820152606401610af8565b50016020015190565b60006022825110156135495760405162461bcd60e51b815260206004820152601c60248201527f4c7a4170703a20696e76616c69642061646170746572506172616d73000000006044820152606401610af8565b506022015190565b82805461355d90613efb565b90600052602060002090601f01602090048101928261357f57600085556135c5565b82601f1061359857805160ff19168380011785556135c5565b828001600101855582156135c5579182015b828111156135c55782518255916020019190600101906135aa565b506135d1929150613649565b5090565b8280546135e190613efb565b90600052602060002090601f01602090048101928261360357600085556135c5565b82601f1061361c5782800160ff198235161785556135c5565b828001600101855582156135c5579182015b828111156135c557823582559160200191906001019061362e565b5b808211156135d1576000815560010161364a565b803561ffff8116811461367057600080fd5b919050565b60008083601f84011261368757600080fd5b5081356001600160401b0381111561369e57600080fd5b6020830191508360208285010111156136b657600080fd5b9250929050565b80356001600160401b038116811461367057600080fd5b600080600080600080608087890312156136ed57600080fd5b6136f68761365e565b955060208701356001600160401b038082111561371257600080fd5b61371e8a838b01613675565b909750955085915061373260408a016136bd565b9450606089013591508082111561374857600080fd5b5061375589828a01613675565b979a9699509497509295939492505050565b60006020828403121561377957600080fd5b81356001600160e01b03198116811461153657600080fd5b60005b838110156137ac578181015183820152602001613794565b838111156120165750506000910152565b600081518084526137d5816020860160208601613791565b601f01601f19169290920160200192915050565b60208152600061153660208301846137bd565b60006020828403121561380e57600080fd5b6115368261365e565b6001600160a01b0381168114610f8e57600080fd5b6000806040838503121561383f57600080fd5b823561384a81613817565b946020939093013593505050565b6000806040838503121561386b57600080fd5b61384a8361365e565b60008060006060848603121561388957600080fd5b833561389481613817565b925060208401356138a481613817565b929592945050506040919091013590565b8035801515811461367057600080fd5b60008060008060008060a087890312156138de57600080fd5b6138e78761365e565b95506020870135945060408701359350613903606088016138b5565b925060808701356001600160401b0381111561391e57600080fd5b61375589828a01613675565b60008060006040848603121561393f57600080fd5b6139488461365e565b925060208401356001600160401b0381111561396357600080fd5b61396f86828701613675565b9497909650939450505050565b634e487b7160e01b600052604160045260246000fd5b604051601f8201601f191681016001600160401b03811182821017156139ba576139ba61397c565b604052919050565b60006001600160401b038211156139db576139db61397c565b50601f01601f191660200190565b6000806000606084860312156139fe57600080fd5b613a078461365e565b925060208401356001600160401b03811115613a2257600080fd5b8401601f81018613613a3357600080fd5b8035613a46613a41826139c2565b613992565b818152876020838501011115613a5b57600080fd5b81602084016020830137600060208383010152809450505050613a80604085016136bd565b90509250925092565b600060608284031215613a9b57600080fd5b50919050565b600080600080600060a08688031215613ab957600080fd5b8535613ac481613817565b9450613ad26020870161365e565b9350604086013592506060860135915060808601356001600160401b03811115613afb57600080fd5b613b0788828901613a89565b9150509295509295909350565b600060208284031215613b2657600080fd5b5035919050565b600060208284031215613b3f57600080fd5b813561153681613817565b60008060008060008060008060e0898b031215613b6657600080fd5b8835613b7181613817565b9750613b7f60208a0161365e565b9650604089013595506060890135945060808901356001600160401b0380821115613ba957600080fd5b613bb58c838d01613675565b9096509450849150613bc960a08c016136bd565b935060c08b0135915080821115613bdf57600080fd5b50613bec8b828c01613a89565b9150509295985092959890939650565b60008060408385031215613c0f57600080fd5b613c188361365e565b9150613c266020840161365e565b90509250929050565b600080600080600080600080600060e08a8c031215613c4d57600080fd5b613c568a61365e565b985060208a0135975060408a0135965060608a01356001600160401b0380821115613c8057600080fd5b613c8c8d838e01613675565b9098509650869150613ca060808d016136bd565b9550613cae60a08d016138b5565b945060c08c0135915080821115613cc457600080fd5b50613cd18c828d01613675565b915080935050809150509295985092959850929598565b600080600080600060808688031215613d0057600080fd5b613d098661365e565b9450613d176020870161365e565b93506040860135925060608601356001600160401b03811115613d3957600080fd5b613d4588828901613675565b969995985093965092949392505050565b60008060408385031215613d6957600080fd5b8235613d7481613817565b91506020830135613d8481613817565b809150509250929050565b600080600060608486031215613da457600080fd5b613dad8461365e565b9250613dbb6020850161365e565b9150604084013590509250925092565b600060208284031215613ddd57600080fd5b611536826138b5565b6000806000806000806000806000806101008b8d031215613e0657600080fd5b613e0f8b61365e565b995060208b01356001600160401b0380821115613e2b57600080fd5b613e378e838f01613675565b909b509950899150613e4b60408e016136bd565b985060608d0135975060808d01359150613e6482613817565b90955060a08c0135945060c08c01359080821115613e8157600080fd5b50613e8e8d828e01613675565b9150809450508092505060e08b013590509295989b9194979a5092959850565b60008060008060808587031215613ec457600080fd5b613ecd8561365e565b9350613edb6020860161365e565b92506040850135613eeb81613817565b9396929550929360600135925050565b600181811c90821680613f0f57607f821691505b60208210811415613a9b57634e487b7160e01b600052602260045260246000fd5b8183823760009101908152919050565b634e487b7160e01b600052601160045260246000fd5b60008219821115613f6957613f69613f40565b500190565b6000816000190483118215151615613f8857613f88613f40565b500290565b600181815b80851115613fc8578160001904821115613fae57613fae613f40565b80851615613fbb57918102915b93841c9390800290613f92565b509250929050565b600082613fdf57506001610ce6565b81613fec57506000610ce6565b8160018114614002576002811461400c57614028565b6001915050610ce6565b60ff84111561401d5761401d613f40565b50506001821b610ce6565b5060208310610133831016604e8410600b841016171561404b575081810a610ce6565b6140558383613f8d565b806000190482111561406957614069613f40565b029392505050565b600061153660ff841683613fd0565b81835281816020850137506000828201602090810191909152601f909101601f19169091010190565b61ffff84168152604060208201526000611da2604083018486614080565b6000808335601e198436030181126140de57600080fd5b8301803591506001600160401b038211156140f857600080fd5b6020019150368190038213156136b657600080fd5b60008282101561411f5761411f613f40565b500390565b8284823760609190911b6bffffffffffffffffffffffff19169101908152601401919050565b600061ffff808816835280871660208401525084604083015260806060830152614178608083018486614080565b979650505050505050565b61ffff861681526080602082015260006141a1608083018688614080565b6001600160401b0394909416604083015250606001529392505050565b61ffff8916815260c0602082015260006141dc60c08301898b614080565b6001600160401b038816604084015286606084015285608084015282810360a084015261420a818587614080565b9b9a5050505050505050505050565b60006020828403121561422b57600080fd5b81516001600160401b0381111561424157600080fd5b8201601f8101841361425257600080fd5b8051614260613a41826139c2565b81815285602083850101111561427557600080fd5b611da2826020830160208601613791565b61ffff851681526080602082015260006142a360808301866137bd565b6001600160401b0385166040840152828103606084015261417881856137bd565b61ffff861681526001600160a01b038516602082015260a0604082018190526000906142f2908301866137bd565b8415156060840152828103608084015261430c81856137bd565b98975050505050505050565b6000806040838503121561432b57600080fd5b505080516020909101519092909150565b6000825161434e818460208701613791565b9190910192915050565b61ffff8616815260a06020820152600061437560a08301876137bd565b6001600160401b0386166040840152828103606084015261439681866137bd565b9050828103608084015261430c81856137bd565b634e487b7160e01b600052601260045260246000fd5b6000826143cf576143cf6143aa565b500490565b600061010061ffff8b1683528060208401526143f28184018b6137bd565b6001600160401b038a166040850152606084018990526001600160a01b038816608085015260a0840187905283810360c0850152905061443281866137bd565b9150508260e08301529998505050505050505050565b60608152600061445b60608301866137bd565b6001600160401b039490941660208301525060400152919050565b600082614485576144856143aa565b500690565b61ffff8716815260c0602082015260006144a760c08301886137bd565b82810360408401526144b981886137bd565b6001600160a01b0387811660608601528616608085015283810360a085015290506144e481856137bd565b9998505050505050505050565b60ff60f81b8760f81b16815285600182015260006001600160401b0360c01b808760c01b166021840152856029840152808560c01b166049840152508251614540816051850160208701613791565b9190910160510197965050505050505056fea264697066735822122032cf701f0c3bd0caf7a7e4914040e5d742ee58bf0e87f4f72ba0ef4f231a3ba464736f6c634300080c0033",
  "devdoc": {
    "kind": "dev",
    "methods": {
      "allowance(address,address)": {
        "details": "See {IERC20-allowance}."
      },
      "approve(address,uint256)": {
        "details": "See {IERC20-approve}. NOTE: If `amount` is the maximum `uint256`, the allowance is not updated on `transferFrom`. This is semantically equivalent to an infinite approval. Requirements: - `spender` cannot be the zero address."
      },
      "balanceOf(address)": {
        "details": "See {IERC20-balanceOf}."
      },
      "circulatingSupply()": {
        "details": "returns the circulating amount of tokens on current chain"
      },
      "decimals()": {
        "details": "Returns the number of decimals used to get its user representation. For example, if `decimals` equals `2`, a balance of `505` tokens should be displayed to a user as `5.05` (`505 / 10 ** 2`). Tokens usually opt for a value of 18, imitating the relationship between Ether and Wei. This is the value {ERC20} uses, unless this function is overridden; NOTE: This information is only used for _display_ purposes: it in no way affects any of the arithmetic of the contract, including {IERC20-balanceOf} and {IERC20-transfer}."
      },
      "decreaseAllowance(address,uint256)": {
        "details": "Atomically decreases the allowance granted to `spender` by the caller. This is an alternative to {approve} that can be used as a mitigation for problems described in {IERC20-approve}. Emits an {Approval} event indicating the updated allowance. Requirements: - `spender` cannot be the zero address. - `spender` must have allowance for the caller of at least `subtractedValue`."
      },
      "estimateSendFee(uint16,bytes32,uint256,bool,bytes)": {
        "details": "estimate send token `_tokenId` to (`_dstChainId`, `_toAddress`) _dstChainId - L0 defined chain id to send tokens too _toAddress - dynamic bytes array which contains the address to whom you are sending tokens to on the dstChain _amount - amount of the tokens to transfer _useZro - indicates to use zro to pay L0 fees _adapterParam - flexible bytes array to indicate messaging adapter services in L0"
      },
      "increaseAllowance(address,uint256)": {
        "details": "Atomically increases the allowance granted to `spender` by the caller. This is an alternative to {approve} that can be used as a mitigation for problems described in {IERC20-approve}. Emits an {Approval} event indicating the updated allowance. Requirements: - `spender` cannot be the zero address."
      },
      "name()": {
        "details": "Returns the name of the token."
      },
      "owner()": {
        "details": "Returns the address of the current owner."
      },
      "renounceOwnership()": {
        "details": "Leaves the contract without owner. It will not be possible to call `onlyOwner` functions anymore. Can only be called by the current owner. NOTE: Renouncing ownership will leave the contract without an owner, thereby removing any functionality that is only available to the owner."
      },
      "sendFrom(address,uint16,bytes32,uint256,(address,address,bytes))": {
        "details": "send `_amount` amount of token to (`_dstChainId`, `_toAddress`) from `_from` `_from` the owner of token `_dstChainId` the destination chain identifier `_toAddress` can be any size depending on the `dstChainId`. `_amount` the quantity of tokens in wei `_refundAddress` the address LayerZero refunds if too much message fee is sent `_zroPaymentAddress` set to address(0x0) if not paying in ZRO (LayerZero Token) `_adapterParams` is a flexible bytes array to indicate messaging adapter services"
      },
      "symbol()": {
        "details": "Returns the symbol of the token, usually a shorter version of the name."
      },
      "token()": {
        "details": "returns the address of the ERC20 token"
      },
      "totalSupply()": {
        "details": "See {IERC20-totalSupply}."
      },
      "transfer(address,uint256)": {
        "details": "See {IERC20-transfer}. Requirements: - `to` cannot be the zero address. - the caller must have a balance of at least `amount`."
      },
      "transferFrom(address,address,uint256)": {
        "details": "See {IERC20-transferFrom}. Emits an {Approval} event indicating the updated allowance. This is not required by the EIP. See the note at the beginning of {ERC20}. NOTE: Does not update the allowance if the current allowance is the maximum `uint256`. Requirements: - `from` and `to` cannot be the zero address. - `from` must have a balance of at least `amount`. - the caller must have allowance for ``from``'s tokens of at least `amount`."
      },
      "transferOwnership(address)": {
        "details": "Transfers ownership of the contract to a new account (`newOwner`). Can only be called by the current owner."
      }
    },
    "title": "A LayerSync OmnichainFungibleToken on LayerZero",
    "version": 1
  },
  "userdoc": {
    "kind": "user",
    "methods": {},
    "version": 1
  },
  "storageLayout": {
    "storage": [
      {
        "astId": 4454,
        "contract": "contracts/oftv2/LayerSyncOFT.sol:LayerSyncOFT",
        "label": "_owner",
        "offset": 0,
        "slot": "0",
        "type": "t_address"
      },
      {
        "astId": 215,
        "contract": "contracts/oftv2/LayerSyncOFT.sol:LayerSyncOFT",
        "label": "trustedRemoteLookup",
        "offset": 0,
        "slot": "1",
        "type": "t_mapping(t_uint16,t_bytes_storage)"
      },
      {
        "astId": 221,
        "contract": "contracts/oftv2/LayerSyncOFT.sol:LayerSyncOFT",
        "label": "minDstGasLookup",
        "offset": 0,
        "slot": "2",
        "type": "t_mapping(t_uint16,t_mapping(t_uint16,t_uint256))"
      },
      {
        "astId": 225,
        "contract": "contracts/oftv2/LayerSyncOFT.sol:LayerSyncOFT",
        "label": "payloadSizeLimitLookup",
        "offset": 0,
        "slot": "3",
        "type": "t_mapping(t_uint16,t_uint256)"
      },
      {
        "astId": 227,
        "contract": "contracts/oftv2/LayerSyncOFT.sol:LayerSyncOFT",
        "label": "precrime",
        "offset": 0,
        "slot": "4",
        "type": "t_address"
      },
      {
        "astId": 764,
        "contract": "contracts/oftv2/LayerSyncOFT.sol:LayerSyncOFT",
        "label": "failedMessages",
        "offset": 0,
        "slot": "5",
        "type": "t_mapping(t_uint16,t_mapping(t_bytes_memory_ptr,t_mapping(t_uint64,t_bytes32)))"
      },
      {
        "astId": 1879,
        "contract": "contracts/oftv2/LayerSyncOFT.sol:LayerSyncOFT",
        "label": "useCustomAdapterParams",
        "offset": 0,
        "slot": "6",
        "type": "t_bool"
      },
      {
        "astId": 1887,
        "contract": "contracts/oftv2/LayerSyncOFT.sol:LayerSyncOFT",
        "label": "creditedPackets",
        "offset": 0,
        "slot": "7",
        "type": "t_mapping(t_uint16,t_mapping(t_bytes_memory_ptr,t_mapping(t_uint64,t_bool)))"
      },
      {
        "astId": 4575,
        "contract": "contracts/oftv2/LayerSyncOFT.sol:LayerSyncOFT",
        "label": "_balances",
        "offset": 0,
        "slot": "8",
        "type": "t_mapping(t_address,t_uint256)"
      },
      {
        "astId": 4581,
        "contract": "contracts/oftv2/LayerSyncOFT.sol:LayerSyncOFT",
        "label": "_allowances",
        "offset": 0,
        "slot": "9",
        "type": "t_mapping(t_address,t_mapping(t_address,t_uint256))"
      },
      {
        "astId": 4583,
        "contract": "contracts/oftv2/LayerSyncOFT.sol:LayerSyncOFT",
        "label": "_totalSupply",
        "offset": 0,
        "slot": "10",
        "type": "t_uint256"
      },
      {
        "astId": 4585,
        "contract": "contracts/oftv2/LayerSyncOFT.sol:LayerSyncOFT",
        "label": "_name",
        "offset": 0,
        "slot": "11",
        "type": "t_string_storage"
      },
      {
        "astId": 4587,
        "contract": "contracts/oftv2/LayerSyncOFT.sol:LayerSyncOFT",
        "label": "_symbol",
        "offset": 0,
        "slot": "12",
        "type": "t_string_storage"
      },
      {
        "astId": 6085,
        "contract": "contracts/oftv2/LayerSyncOFT.sol:LayerSyncOFT",
        "label": "fee",
        "offset": 0,
        "slot": "13",
        "type": "t_uint256"
      }
    ],
    "types": {
      "t_address": {
        "encoding": "inplace",
        "label": "address",
        "numberOfBytes": "20"
      },
      "t_bool": {
        "encoding": "inplace",
        "label": "bool",
        "numberOfBytes": "1"
      },
      "t_bytes32": {
        "encoding": "inplace",
        "label": "bytes32",
        "numberOfBytes": "32"
      },
      "t_bytes_memory_ptr": {
        "encoding": "bytes",
        "label": "bytes",
        "numberOfBytes": "32"
      },
      "t_bytes_storage": {
        "encoding": "bytes",
        "label": "bytes",
        "numberOfBytes": "32"
      },
      "t_mapping(t_address,t_mapping(t_address,t_uint256))": {
        "encoding": "mapping",
        "key": "t_address",
        "label": "mapping(address => mapping(address => uint256))",
        "numberOfBytes": "32",
        "value": "t_mapping(t_address,t_uint256)"
      },
      "t_mapping(t_address,t_uint256)": {
        "encoding": "mapping",
        "key": "t_address",
        "label": "mapping(address => uint256)",
        "numberOfBytes": "32",
        "value": "t_uint256"
      },
      "t_mapping(t_bytes_memory_ptr,t_mapping(t_uint64,t_bool))": {
        "encoding": "mapping",
        "key": "t_bytes_memory_ptr",
        "label": "mapping(bytes => mapping(uint64 => bool))",
        "numberOfBytes": "32",
        "value": "t_mapping(t_uint64,t_bool)"
      },
      "t_mapping(t_bytes_memory_ptr,t_mapping(t_uint64,t_bytes32))": {
        "encoding": "mapping",
        "key": "t_bytes_memory_ptr",
        "label": "mapping(bytes => mapping(uint64 => bytes32))",
        "numberOfBytes": "32",
        "value": "t_mapping(t_uint64,t_bytes32)"
      },
      "t_mapping(t_uint16,t_bytes_storage)": {
        "encoding": "mapping",
        "key": "t_uint16",
        "label": "mapping(uint16 => bytes)",
        "numberOfBytes": "32",
        "value": "t_bytes_storage"
      },
      "t_mapping(t_uint16,t_mapping(t_bytes_memory_ptr,t_mapping(t_uint64,t_bool)))": {
        "encoding": "mapping",
        "key": "t_uint16",
        "label": "mapping(uint16 => mapping(bytes => mapping(uint64 => bool)))",
        "numberOfBytes": "32",
        "value": "t_mapping(t_bytes_memory_ptr,t_mapping(t_uint64,t_bool))"
      },
      "t_mapping(t_uint16,t_mapping(t_bytes_memory_ptr,t_mapping(t_uint64,t_bytes32)))": {
        "encoding": "mapping",
        "key": "t_uint16",
        "label": "mapping(uint16 => mapping(bytes => mapping(uint64 => bytes32)))",
        "numberOfBytes": "32",
        "value": "t_mapping(t_bytes_memory_ptr,t_mapping(t_uint64,t_bytes32))"
      },
      "t_mapping(t_uint16,t_mapping(t_uint16,t_uint256))": {
        "encoding": "mapping",
        "key": "t_uint16",
        "label": "mapping(uint16 => mapping(uint16 => uint256))",
        "numberOfBytes": "32",
        "value": "t_mapping(t_uint16,t_uint256)"
      },
      "t_mapping(t_uint16,t_uint256)": {
        "encoding": "mapping",
        "key": "t_uint16",
        "label": "mapping(uint16 => uint256)",
        "numberOfBytes": "32",
        "value": "t_uint256"
      },
      "t_mapping(t_uint64,t_bool)": {
        "encoding": "mapping",
        "key": "t_uint64",
        "label": "mapping(uint64 => bool)",
        "numberOfBytes": "32",
        "value": "t_bool"
      },
      "t_mapping(t_uint64,t_bytes32)": {
        "encoding": "mapping",
        "key": "t_uint64",
        "label": "mapping(uint64 => bytes32)",
        "numberOfBytes": "32",
        "value": "t_bytes32"
      },
      "t_string_storage": {
        "encoding": "bytes",
        "label": "string",
        "numberOfBytes": "32"
      },
      "t_uint16": {
        "encoding": "inplace",
        "label": "uint16",
        "numberOfBytes": "2"
      },
      "t_uint256": {
        "encoding": "inplace",
        "label": "uint256",
        "numberOfBytes": "32"
      },
      "t_uint64": {
        "encoding": "inplace",
        "label": "uint64",
        "numberOfBytes": "8"
      }
    }
  }
}